:020000040800F2
:100000000000032075020008C5020008C5020008B0
:10001000C5020008C5020008C50200080000000073
:10002000000000000000000000000000C502000801
:10003000C502000800000000C5020008C502000853
:10004000C5020008C5020008C5020008C502000874
:10005000C5020008C5020008C5020008C502000864
:10006000C5020008C5020008C5020008C502000854
:10007000C5020008C5020008C5020008C502000844
:10008000C5020008C5020008C5020008C502000834
:10009000C5020008C5020008C5020008C502000824
:1000A000C5020008C5020008C5020008C502000814
:1000B000C5020008C5020008C5020008C502000804
:1000C000C5020008C5020008C5020008C5020008F4
:1000D000C5020008C5020008C5020008C5020008E4
:1000E000C5020008C5020008C5020008C5020008D4
:1000F000C5020008C5020008C5020008C5020008C4
:10010000C5020008C5020008C5020008C5020008B3
:10011000C5020008C5020008C5020008C5020008A3
:10012000C5020008C5020008C5020008C502000893
:10013000C5020008C5020008C5020008C502000883
:10014000C5020008C5020008C5020008C502000873
:10015000C5020008C5020008C5020008C502000863
:10016000C5020008C5020008C5020008C502000853
:10017000C5020008C5020008C50200080000000012
:10018000C5020008C5020008C5020008C502000833
:10019000C5020008C5020008C5020008C502000823
:0C01A000C5020008C5020008C5020008E6
:1001AC0010B5054C237833B9044B13B10448AFF3A5
:1001BC0000800123237010BD00000020000000000F
:1001CC001003000808B5034B1BB103490348AFF3F8
:1001DC00008008BD0000000004000020100300088F
:1001EC00034AD2F8883043F47003C2F88830704761
:1001FC0000ED00E01A4AD2F8303843F00603C2F89A
:10020C003038184BD3F8002442F48042C3F8002451
:10021C00D3F8042422F08002C3F80424D3F8082471
:10022C0042F48042C3F80824D3F8182442F40002A4
:10023C00C3F8182406E00B4AD2F8183443F08003B4
:10024C00C2F81834074BD3F8103813F4005FF2D10E
:10025C00044AD2F8183443F40003C2F81834F1E716
:10026C000030024000000240DFF834D00D480E4947
:10027C000E4A002302E0D458C4500433C4188C42F4
:10028C00F9D30B4A0B4C002301E013600432A24259
:10029C00FBD3FFF7A5FF00F011F8FFF7ABFF70479A
:1002AC0000000320000000200000002030030008A4
:1002BC00000000201C000020FEE7000070B50D4D72
:1002CC000D4C641BA4100026A64209D10B4D0C4CFE
:1002DC0000F018F8641BA4100026A64205D170BDCE
:1002EC0055F8043B98470136EEE755F8043B984720
:1002FC000136F2E728030008280300082803000849
:10030C002C030008F8B500BFF8BC08BC9E4670472B
:0C031C00F8B500BFF8BC08BC9E46704756
:04032800D1010008F7
:04032C00AD01000817
:040000050800027578
:00000001FF
