:020000040800F2
:1000000000000320E102000831030008310300086A
:10001000310300083103000831030008000000002C
:100020000000000000000000000000003103000894
:10003000310300080000000031030008310300080C
:1000400031030008310300083103000831030008C0
:1000500031030008310300083103000831030008B0
:1000600031030008310300083103000831030008A0
:100070003103000831030008310300083103000890
:100080003103000831030008310300083103000880
:100090003103000831030008310300083103000870
:1000A0003103000831030008310300083103000860
:1000B0003103000831030008310300083103000850
:1000C0003103000831030008310300083103000840
:1000D0003103000831030008310300083103000830
:1000E0003103000831030008310300083103000820
:1000F0003103000831030008310300083103000810
:1001000031030008310300083103000831030008FF
:1001100031030008310300083103000831030008EF
:1001200031030008310300083103000831030008DF
:1001300031030008310300083103000831030008CF
:1001400031030008310300083103000831030008BF
:1001500031030008310300083103000831030008AF
:10016000310300083103000831030008310300089F
:1001700031030008310300083103000800000000CB
:10018000310300083103000831030008310300087F
:10019000310300083103000831030008310300086F
:0C01A0003103000831030008310300089F
:1001AC0010B5054C237833B9044B13B10448AFF3A5
:1001BC0000800123237010BD00000020000000000F
:1001CC007C03000808B5034B1BB103490348AFF38C
:1001DC00008008BD00000000040000207C03000823
:1001EC00034AD2F8883043F47003C2F88830704761
:1001FC0000ED00E008B500F02FF800F053F80CE02B
:10020C00124A936943F48033936110E0104AD2F898
:10021C00183443F08003C2F818340E4B1B6913F0EA
:10022C00020FEDD0094A936943F001039361084B27
:10023C00D3F8103813F4005FE8D1054AD2F818341B
:10024C0043F40003C2F81834E7E700BF0010024083
:10025C000000024000180240104AD2F8303843F037
:10026C000603C2F830380E4BD3F8002442F4804217
:10027C00C3F80024D3F8042422F08002C3F8042429
:10028C00D3F8082442F48042C3F80824D3F8182485
:10029C0042F40002C3F81824704700BF003002403B
:1002AC0000000240094A136B43F050031363084BE0
:1002BC001A6842F001021A609A6842F001029A60D0
:1002CC009A6942F480329A61704700BF003802404C
:1002DC0000100240DFF834D00D480E490E4A0023BE
:1002EC0002E0D458C4500433C4188C42F9D30B4ADE
:1002FC000B4C002301E013600432A242FBD3FFF746
:10030C006FFF00F011F8FFF775FF70470000032036
:10031C0000000020000000209C03000800000020CA
:10032C001C000020FEE7000070B50D4D0D4C641B49
:10033C00A4100026A64209D10B4D0C4C00F018F865
:10034C00641BA4100026A64205D170BD55F8043BD1
:10035C0098470136EEE755F8043B98470136F2E72B
:10036C009403000894030008940300089803000801
:10037C00F8B500BFF8BC08BC9E467047F8B500BF86
:08038C00F8BC08BC9E46704756
:04039400D10100088B
:04039800AD010008AB
:04000005080002E10C
:00000001FF
